:020000040800F2
:1000000018040020010100080F120008291100083F
:100010000D1200080D080008A512000800000000DD
:1000200000000000000000000000000013120008A3
:100030000F08000800000000111200081512000847
:100040001B0100081B0100081B0100081B01000820
:100050001B0100081B0100081B0100081B01000810
:100060001B0100081B0100081B0100081B01000800
:100070001B0100081B0100081B0100081B010008F0
:100080001B0100081B0100081B0100081B010008E0
:100090001B0100081B0100081B0100081B010008D0
:1000A0001B0100081B0100081B0100081B010008C0
:1000B0001B0100081B0100081B0100081B010008B0
:1000C0001B0100081B0100081B0100081B010008A0
:1000D0001B0100081B0100081B0100081B01000890
:1000E0001B0100081B0100081B010008DFF80CD0F1
:1000F00000F0FCFA00480047651E000818040020C4
:100100000648804706480047FEE7FEE7FEE7FEE7B1
:10011000FEE7FEE7FEE7FEE7FEE7FEE75D1200080A
:10012000ED000008202A04DB203A21FA02F0002129
:10013000704721FA02F3D040C2F1200291400843F7
:1001400019467047D2B201E000F8012B491EFBD2DC
:1001500070470022F6E710B513460A4604461946D2
:10016000FFF7F0FF204610BD80EA010210B502F053
:100170000043400022D04A001FD0010E01EB126163
:10018000C0F35600C2F3560240F4000042F40002ED
:10019000A0FB022000047F39140400D0401C50EA68
:1001A000124001D44000491EC2B20C0604EBD0102C
:1001B000401C4008802A02D003E0002010BD20F03F
:1001C0000100002900DA0020184310BD30B480EA95
:1001D000010202F0004530F0004221F0004013D04F
:1001E00090B1C30DD40DC2F31601C0F31600E41A8A
:1001F00041F4000140F400027D34914201D3641CBB
:1002000000E04900002C02DA30BC002070474FF4B7
:1002100000000023914201D3891A034340084FEAAA
:100220004101F7D151B1914202D14FF0004105E0B7
:1002300002D24FF0010101E06FF0010103EBC45065
:10024000284430BC00F063B8C10F80EAE070084475
:10025000CA079623002100F063B800F0004230F096
:1002600000400AD0C10D01F56071C0F3160042EAEA
:100270000151C208400711437047002001467047F2
:1002800030B50B46014600202022012409E021FA66
:1002900002F59D4205D303FA02F5491B04FA02F563
:1002A0002844151EA2F10102F1DC30BD2DE9F05FFA
:1002B0000546002092469B468846064681464024D5
:1002C0001BE02846414647462246FFF72BFF534690
:1002D0005A46C01A914110D311461846224600F0E2
:1002E00017FA2D1A67EB01084F462246012000211C
:1002F00000F00EFA17EB00094E41201EA4F1010494
:10030000DFDC484631462A464346BDE8F09F0029D7
:10031000A8BF7047401C490008BF20F0010070478B
:1003200010B4B0FA80FC00FA0CF050EA010404BFEB
:1003300010BC704749B1CCF1200421FA04F411FA41
:100340000CF118BF012121430843A3EB0C01CB1D85
:100350004FEA00614FEA102042BF002010BC7047F6
:1003600000EBC35010440029A4BF10BC7047401CD0
:10037000490008BF20F0010010BC70472DE9FE4F76
:10038000804681EA0300C00F0C46009021F0004136
:1003900023F00045B8EB0200A94105D240462146B2
:1003A00090461C460B46024623F00040104347D0BF
:1003B000270DC7F30A00C3F30A510290401A0190B7
:1003C00040286BDAC3F3130040F4801B0098924678
:1003D00020B10023D2EB030A63EB0B0B01985946C3
:1003E000C0F14002504600F093F906460D465046D3
:1003F0005946019A00F09BF910EB08006141002476
:1004000087EA115284EAE7731A4340D0009A62B334
:10041000019A012A4FEA075215DC001B61EB020129
:100420004FF0004202EA0752CDE90042001C41F5BC
:10043000801132462B4600F09BF903B0BDE8F08FE7
:1004400040462146F9E7001B61EB0201001C41F523
:10045000801300185B412018A2F5001747EB030139
:1004600040EAD570B6196D4111E06D084FEA3606C5
:1004700045EAC0754FEA0752001B61EB0201001C00
:1004800041F5801149084FEA3000001951413246C8
:100490002B4603B0BDE8F04F00F05BB90098012295
:1004A00040000023D0EB020263EBE073009821468A
:1004B0004FEAE074B8EB000061EB0401E9E783F078
:1004C00000435BE781F0004158E72DE9FE4F81EAE8
:1004D000030404F0004421F0004100944FF0000BAD
:1004E00023F0004350EA01045ED052EA03045BD0DB
:1004F000C3F30A54C1F30A552C44A4F2F334019413
:10050000A0FB0254C1F3130141F48011C3F31303A0
:1005100043F4801301FB024400FB034E840A970A54
:1005200044EA815447EA8357A4FB076802958D0A81
:1005300005FB07854FEA932C04FB0C542705029D0D
:100540004FEA065847EA1637B5EB08056EEB070C7D
:10055000870E920E47EA811742EA8312A7FB020137
:10056000B6EB0B0164EB00042B0D43EA0C335E1871
:1005700044EB1C50DA465146E7FB0201C5F3130475
:100580004FEA0B3343EA14534FEA0432019C43EA27
:100590000603A4F10C040294009CCDE900B400F021
:1005A000E7F803B0BDE8F08F00200146F9E72DE938
:1005B000F04D81EA030404F0004B21F0004514469D
:1005C0004FF0000A23F0004150EA050220D054EA1F
:1005D00001021DD0C5F30A570246C5F31303C1F348
:1005E0001300C1F30A5640F4801543F48013A7EBBF
:1005F0000608101BD64608F2FD3873EB050002D33F
:1006000008F1010801E092185B41B8F1000F03DA2C
:1006100000200146BDE8F08D00204FF48011064611
:1006200084460EE0171B73EB050705D3121B63EB23
:10063000050306434CEA010C49084FEA30009218C2
:100640005B4150EA0107EDD152EA030012D082EA81
:10065000040083EA0501084305D0101BAB4106D214
:100660000122002306E000224FF0004302E06FF079
:10067000010253101AEB06004CEB085110EB0A0074
:1006800041EB0B01BDE8F04D00F063B8C1F30A5235
:10069000C1F3130140F2FF3341F480119A4202DAB0
:1006A00000200146704740F233439A42A2F233429F
:1006B00002DC5242FFF736BD00F02AB830B5041E06
:1006C00071F1000404DB4FF00044404264EB01018F
:1006D000141E73F1000405DB1C464FF00043524228
:1006E00063EB0403994208BF904230BD064C074DAE
:1006F00006E0E06840F0010394E8070098471034F2
:10070000AC42F6D3FFF7F6FC781F0008981F0008EC
:10071000202A04DB203A00FA02F1002070479140C1
:10072000C2F1200320FA03F3194390407047202AB6
:1007300006DBCB17203A41FA02F043EAE07306E009
:1007400041FA02F3D040C2F1200291400843194619
:10075000704710B5141E73F1000408DA401C41F113
:10076000000192185B411A4301D120F0010010BD35
:100770002DE9F04D92469B4611B1B1FA81F202E0AB
:10078000B0FA80F220329046FFF7C2FF04460F46CF
:1007900040EA0A0041EA0B0153465A46084313D087
:1007A000114653EA010019D0C8F140025046FFF744
:1007B000B9FC05460E46504659464246FFF7A8FF8B
:1007C000084305D0012004E020463946BDE8F08DFD
:1007D0000020054346EAE0762C4337430A98630538
:1007E000E40AA0EB08000022FD0A44EA47540A305C
:1007F00002D500200146E9E7010510196941DDE94C
:10080000084500196941BDE8F04DA2E7FEE77047D1
:1008100070B5044600F008F90546601C02D0044893
:100820000078044400F000F9401BA042FAD370BDE8
:10083000080000202DE9F84FDFF8B891002409F1F5
:10084000040A0AF1040B23460F270BF1040EC9E03A
:100850000125A5402A40AA427DD1674ED1F804C0A7
:10086000ACEB0608B44532D014DCBCF1030F3AD02F
:1008700009DCBCF1000F2AD0BCF1010F1CD0BCF187
:10088000020F31D11DE0BCF1110F17D0BCF1120FD6
:100890002AD119E0B8F5881F19D006DCB8F5803FD9
:1008A00015D0B8F5801F1FD111E0B8F5001F0ED08C
:1008B000B8F5041F18D10AE0CB6815E0CB681B1D02
:1008C00012E0CB6808330FE0CB680C330CE08B6888
:1008D0002BB1012B4FF0080303D0456104E0042342
:1008E00002E0056100E00023FF2A01D8064601E08E
:1008F00000F104064FEA840501D9A5F12005D6F8D8
:10090000008007FA05FC28EA0C0803FA05F548EA16
:100910000508C6F800804D68ED0062D5374DAE6918
:1009200046F00106AE61AD6924F0030605F001054D
:100930000095334D06EB050CDCF80850A607360F82
:1009400007FA06F825EA0805DFF8B880404503D124
:100950004FF0000817E044E0DFF8AC80404502D1DA
:100960004FF001080FE0DFF8A480404502D14FF0BE
:10097000020808E0DFF89880404502D14FF00308F4
:1009800001E04FF0040808FA06F848EA0508CCF838
:1009900008804D68D9F80060ED034D4601D5164337
:1009A00000E096432E604D68DAF80060AD035546CE
:1009B00001D5164300E096432E604D68DBF80060D9
:1009C000ED025D4601D5164300E096432E604D686A
:1009D000DEF80060AD02754601D5164300E096438F
:1009E0002E60641C0D682A46E5407FF431AFBDE8F7
:1009F000F88F0000000401400000111000100240B8
:100A00000000014000080140000C014000100140BE
:100A1000001401408068084000D0012070470AB1EE
:100A2000016170470904FBE70148806870470000D6
:100A300008000020024881680278114481607047F4
:100A400008000020074810B5016841F0100101605E
:100A5000032000F067F8002000F006F800F024F80A
:100A6000002010BD0020024070B50D4D04464FF42B
:100A70007A712878B1FBF0F00A490968B1FBF0F00F
:100A800000F0BEFA48B9102C07D200222146501EB1
:100A900000F028F800206C6070BD012070BD0000DF
:100AA00008000020140000200C4808B5816941F0BE
:100AB00001018161816901F001010091C16941F089
:100AC0008051C161C06900F08050009004484168C5
:100AD00021F0E06141F00071416008BD001002406A
:100AE00000000140F0B40E4B1B680C46C3F3022318
:100AF000C3F10705042D00D90425191D072901D2CA
:100B0000002300E0DB1E012606FA05F1491E214004
:100B100099409E40761E16403143F0BC00F0D8BB91
:100B20000CED00E0064900F0070208684FF6FF03ED
:100B3000184040EA0220034A104308607047000052
:100B40000CED00E00000FA052DE9F0470F46050026
:100B500061D0434E306800F00700B84209D23068D7
:100B600020F0070038433060306800F00700B842DA
:100B700051D128683B4C810712D5400703D56068E6
:100B800040F4E06060602878000703D5606840F4B6
:100B9000605060606068A96820F0F0000843606001
:100BA0002878C00728D06868012810D0216802285A
:100BB00010D0890700292EDA616821F00301014372
:100BC0006160FFF731FF804641F288390DE021680E
:100BD0008903EFE78901EDE7FFF726FFA0EB0801A6
:100BE000494502D90320BDE8F0876068696800F0D4
:100BF0000C00B0EB810FEFD1306800F00700B84275
:100C00000BD9306820F0070038433060306800F0BE
:100C10000700B84201D00120E5E72878400705D554
:100C20006068E96820F4E0600843606028780007A5
:100C300006D56068296920F4605040EAC100606010
:100C400000F018F86168084AC1F30311515CC8400C
:100C50000649086006480068FFF706FF0020C2E763
:100C60000020024000100240681F0008140000200D
:100C70000C00002012A185B00FC98DE80F0014A050
:100C8000144A006804905168134801F00C03042BC7
:100C900010D0082B0ED1C1F38343C9031DF8030004
:100CA0000AD5516804AAC1F34041515C0A4A504335
:100CB000B0FBF1F005B0704708494843FAE700007F
:100CC00002030405060708090A0B0C0D0E0F10108D
:100CD000010200000010024000127A0000093D00ED
:100CE0002DE9F84F040070D02078C04DC00749D0DE
:100CF0006868C0F38100012807D06868C0F38100EC
:100D0000022809D16868C00306D52868800339D550
:100D100060680028E7D035E06068B0F5803F0BD010
:100D200010B1B0F5A02F11D0286820F480302860D1
:100D3000286820F4802002E0286840F48030286091
:100D4000606890B1FFF770FE06460AE0286840F43C
:100D500080202860F0E700BFFFF766FE801B642854
:100D600073D828688003F7D50CE0FFF75DFE0646D0
:100D700005E000BFFFF758FE801B6428F0D8286804
:100D80008003F7D420789A4E80074FF001094FF086
:100D9000000839D5686810F00C0F07D06868C0F3F8
:100DA0008100022809D16868C00306D4286880073A
:100DB00014D52069012808D110E02069B0B1C6F827
:100DC0000090FFF731FE074605E00AE1FFF72CFE31
:100DD000C01B0228C4D828688007F7D52868616935
:100DE00020F0F80040EAC10028600DE0C6F800805D
:100DF000FFF71AFE074604E0FFF716FEC01B0228A5
:100E000023D828688007F7D4207800072CD57948A4
:100E1000A169D9B1C0F80090FFF706FE074604E0CB
:100E2000FFF702FEC01B02280FD8686A8007F7D5BB
:100E300071484FF4FA510068B0FBF1F0009000BF28
:100E40000098411E0091FAD20EE080E0C0F80080C8
:100E5000FFF7EAFD074604E0FFF7E6FDC01B0228A6
:100E600075D8686A8007F7D42078400760D5E869AC
:100E70000027C00008D4E86940F08050E861E869C4
:100E8000012700F0805000905C480168C90513D428
:100E90000168834641F480710160FFF7C5FD824619
:100EA00006E000BFFFF7C0FDA0EB0A0064284ED8A3
:100EB000DBF80000C005F5D5E06801280AD008B1CC
:100EC000052813D0286A20F001002862286A20F043
:100ED000040002E0286A40F001002862E06841F264
:100EE000883B98B1FFF7A0FD82460BE0286A40F0EE
:100EF00004002862EEE700BFFFF796FDA0EB0A01B1
:100F000059455AD8286A8007F6D50CE0FFF78CFDC2
:100F1000824605E0FFF788FDA0EB0A0159454CD851
:100F2000286A8007F6D41FB1E86920F08050E86194
:100F3000E06988B36968C1F38101022944D00228BD
:100F4000C6F8608004D0FFF76FFD044638E034E057
:100F5000FFF76AFD074604E0FFF766FDC01B0228A5
:100F60002BD828688001F7D4206AB0F5803F05D1DE
:100F70006868A16820F4003008436860D4E908017B
:100F80000843696821F4741108436860C6F86090EA
:100F9000FFF74AFD044606E025E000BFFFF744FDE9
:100FA000001B022809D828688001F7D51BE000BF84
:100FB000FFF73AFD001B022802D90320BDE8F88F95
:100FC00028688001F4D40EE00128F7D06868226A0E
:100FD00000F48031914204D1616A00F470108842BB
:100FE00001D00120EAE70020E8E7000000100240FD
:100FF0000000424280044242140000200070004081
:1010000010B5401EB0F1807F01D3012010BD4FF01C
:10101000E02460610F21601700F05AF90020A06100
:1010200007202061002010BD2DE9F84F0025DDE9E3
:101030000A768046894692469B462C4608E05B46E7
:10104000524649464046009700F033F80544641C78
:10105000B442F4DB95FBF6F0BDE8F88F2DE9FF47CD
:1010600097B24FF0010ACDE9007A0C464FF0000824
:101070004FF00209054616466946CDE90289FFF799
:10108000D9FB300CCDF80C908DE80105204669465F
:10109000FFF7D0FB284601223946FFF7C0FC32207B
:1010A000FFF7B6FB204600223946FFF7B8FCBDE843
:1010B000FF872DE9F0470446DDF820900E46904664
:1010C00000254FEA124A30465146FFF7A3FC01289B
:1010D000F9D000271FFA88F8204601224146FFF781
:1010E0009EFC6D0030465146FFF794FC00B16D1C2C
:1010F000204600224146FFF792FC7F1CFFB2182FCA
:10110000EAD300260AE0204601224146FFF787FC89
:10111000204600224146FFF782FC761CB145F2DCF6
:1011200085F40000BDE8F087FEE700002DE9F047F8
:1011300086B000243148009401940294039481699C
:1011400041F010018161816901F010010491816910
:1011500041F020018161816901F0200104918169E0
:1011600041F004018161816901F004010491816908
:1011700041F0080181618069DFF8848000F0080097
:101180004FF400550490002229464046FFF747FCE3
:10119000DFF870900022F6214846FFF740FCDFF8A8
:1011A00068A02F11002239465046FFF738FC009501
:1011B000022601250396CDE9015469464046FFF712
:1011C00039FBF620CDE90005CDE9024669464846DF
:1011D000FFF730FB2802CDE900046946504602942F
:1011E000FFF728FB00970396CDE901546946504666
:1011F000FFF720FB06B0BDE8F087000000100240BA
:101200000010014000080140000C0140FEE770475B
:1012100070477047FFF70EBC10B590B028216846A4
:10122000FEF797FF14210AA8FEF793FF0220009013
:101230000120049010200024059007946846FFF7D1
:101240004FFD0F20CDE90A040C940D9400210AA84B
:101250000E94FFF779FC10B010BD00000D48016836
:1012600041F00101016041680B4A11404160016891
:101270000A4A11400160016821F48021016041683F
:1012800021F4FE0141604FF41F0181600449C00355
:1012900008607047001002400000FFF8FFFFF6FEF4
:1012A00008ED00E0FEE700000FB4084B10B504A9FC
:1012B00002AA039800F0EEF8044602A9002000F00C
:1012C00080FC204610BC5DF814FB0000C31B000826
:1012D0000907090E002804DB00F1E02080F8001463
:1012E000704700F00F0000F1E02080F8141D7047F7
:1012F00002E008C8121F08C1002AFAD170477047DF
:10130000002001E001C1121F002AFBD1704700003C
:101310002DE9FF5F82B00021DDE90430020DDDF828
:1013200040B0034318D044F61050A2F2FF324243BB
:101330001514119801281FD0A5EB0B00401C5FEA83
:10134000000A4FF000064E4FDFF83891B046504685
:1013500015D5CAF1000413E0119801244AA301280D
:1013600001D16FEA0B010298119AC0E90031C0E97E
:10137000024206B0BDE8F09FCBF10000DFE7044673
:101380000021404A491842EB0450CDE9001012E018
:10139000E00707D032463B4640464946FFF795F8FE
:1013A0008046894632463B4610461946FFF78DF87F
:1013B00006460F466410002CEAD1DDE90401DDE9A0
:1013C0000023BAF1000F06DAFFF77FF842464B46DA
:1013D000FFF77BF805E0FFF7EAF842464B46FFF7D8
:1013E000E6F804460E460022284BFFF767F903D8BB
:1013F0004FF0FF30014607E00022254B20463146E2
:10140000FEF7BCFFFFF742F9102409E0002C0ADBCD
:101410000A220023FEF74AFF039B30321A55641E4E
:1014200050EA0102F2D1641C039AC4F1110314447E
:10143000119A012A03D0012208430DD10AE0084382
:1014400004D000204FF0110B119072E7A3EB0B05B5
:101450006D1E0DE05B4504DD4FF0000205F1010556
:1014600004E003DA4FF00002A5F10105002AECD0F8
:1014700002981199C0E90231C0E9004579E70000FE
:10148000000014400000F03F300000000000F04376
:101490000000E03F2DE9FF4F95B09B468946064688
:1014A00000250FE2252877D100242746F84A01219C
:1014B000059400E0044316F8013F203B01FA03F0D5
:1014C0001042F7D130782A2811D06FF02F033078EE
:1014D000A0F13002092A16D8059A44F0020402EB62
:1014E000820203EB42021044761C0590EFE759F8A4
:1014F000042B0592002A03DA504244F4005405906C
:1015000044F00204761C30782E2816D116F8010F0C
:1015100044F004042A280DD06FF02F023078A0F197
:101520003003092B09D807EB870302EB4303C718E5
:10153000761CF3E759F8047B761C30786C280FD0C2
:1015400006DC4C2817D068280DD06A2814D104E096
:10155000742810D07A280FD10DE044F400140AE06A
:1015600044F4801401E044F440147278824202D1C1
:1015700004F58014761C761C307866280BD013DCBA
:10158000582877D009DC002875D04528F6D04628A1
:10159000F4D047281AD19DE118E0632835D064289B
:1015A00079D0652812D195E1702873D008DC6728BE
:1015B000F1D069286FD06E280DD06F2806D1B5E024
:1015C00073282CD0752875D0782874D05A4617996E
:1015D00090476D1C75E1C4F30250022809D003281E
:1015E0000DD0D9F8001004280DD00D6009F10409C0
:1015F00067E1D9F80010EA17C1E90052F6E7D9F817
:1016000000100D80F2E70D70F0E719F8041B8DF85B
:10161000001000208DF80100EA46012003E059F88F
:1016200004AB4FF0FF3061074FF0000102D40DE032
:1016300008F101018846B9420FDA8045F8DB1AF853
:1016400008100029F4D108E008F101018846814220
:10165000FADB1AF808100029F6D105985B46A0EBD2
:10166000080721463846179A00F094FA284400EB00
:10167000080507E04DE029E10DE01AF8010B5A4694
:1016800017999047B8F10108F7D25B4621463846D2
:10169000179A13E142E00A220092C4F302524FF07B
:1016A000000A022A08D059F804CB032A4FEAEC7149
:1016B0000AD00DE029E02AE009F1070121F0070234
:1016C000F2E802C1914609E00FFA8CFC4FEAEC7196
:1016D000042A03D14FFA8CFC4FEAEC71002907DA97
:1016E0000A460021DCF1000C61EB02012D2202E030
:1016F000220504D52B228DF80420012203E0E20705
:1017000001D02022F7E7904659E00A2102E010229A
:101710000DE010214FF0000A00910BE010224FF075
:10172000000A44F004040827009203E008224FF066
:10173000000A0092C4F30252022A05D059F804CBE1
:101740000021032A08D009E009F1070121F007026E
:10175000F2E802C1914605E01FFA8CFC042A01D18F
:101760000CF0FF0C4FF00008220728D5702806D097
:10177000009B83F0100353EA0A0305D00EE04022D9
:101780008DF80420012208E05CEA010206D0302234
:101790008DF804208DF8050002229046009B83F00E
:1017A000080353EA0A030AD15CEA010201D1620785
:1017B00005D530228DF804204FF001087F1E5828EF
:1017C00004D034A003900EA802900DE036A0F9E7F3
:1017D00053466046009AFEF769FD84460398825C92
:1017E0000298401E029002705CEA0100F0D102985B
:1017F00006A9081A00F1200A600702D524F48034F3
:1018000000E00127574502DDA7EB0A0000E00020B9
:1018100000EB0A01009005984144401A0590E0034E
:1018200006D45B462146179A059800F0B3F90544A3
:10183000002706E001A85A46C05D179990476D1C25
:101840007F1C4745F6DBE0030CD55B462146179A23
:10185000059800F09FF9054404E030205A46179996
:1018600090476D1C0099481E00900029F5DC08E0A7
:10187000029802995A460078491C0291179990479C
:101880006D1CBAF10001AAF1010AF1DC65E100006A
:101890000928010030313233343536373839616246
:1018A000636465660000000030313233343536370A
:1018B00038394142434445460000000000F058F9E1
:1018C0000544761C307800287FF4ECAD19B028462A
:1018D000BDE8F08F620700D4062709F1070222F065
:1018E000070CFCE80223E14603F000485FEA080C1D
:1018F00002D00FF2702C0DE05FEA045C02D50FF20B
:10190000682C07E05FEAC47C02D00FF2602C01E093
:10191000AFF2700C4FF0FF3823F00043CDF850C009
:1019200065280CD006DC452809D046281DD047285C
:101930003DD13DE0662818D067287ED138E00021EF
:10194000112F01DB112000E0781CCDE9000106A970
:101950000EA8FFF7DDFCDDE90F010E9A03910021CF
:10196000009207F1010A04914DE04FF0004000970A
:10197000CDE9011006A90EA8FFF7CAFCDDE90F02A8
:1019800003920E9B11990022DDF80CA000930492A3
:1019900011B9791C00EB010AB7EB0A0004D4C0F1BD
:1019A000FF3007F1010A0490AAEB0700019044E020
:1019B000012F00DA01270021112F01DD112000E0A5
:1019C0003846CDE9000106A90EA8FFF7A1FCDDE924
:1019D0000F010E9A0391002104910092BA4621074B
:1019E0000CD40399514500DA8A46BAF1010F05DD9E
:1019F000009AAAF10101515C302908D0B84202DAFC
:101A000010F1040F06DA0121CDE9011015E0AAF169
:101A10000101E9E7002805DC049901440491AAEBDF
:101A2000000102E0411C514500DD8A460499401A3C
:101A3000401C01904FF000400290200704D4019810
:101A4000504501DBCDF8048000208DF84F0002984E
:101A50000DF14F07B0F1004F25D02B200E900298CA
:101A60004FF0020800280CDA404202902D200E9020
:101A700007E00A210298FEF703FC3031029007F8D4
:101A8000011DB8F10001A8F10108F2DC029800285C
:101A9000EFD1791E0E980870307800F0200040F0E9
:101AA000450007F8020D12A8C01B00F107081498A2
:101AB000007800B1012000EB0A01019801EBE07110
:101AC00005984144401A401E0590E00306D45B4649
:101AD0002146179A059800F05DF80544149800789F
:101AE00018B15A46179990476D1CE00324D55B4600
:101AF0002146179A059800F04DF805441CE004981B
:101B0000002807DBDDE90301884203DD0098405C23
:101B1000179901E0179930205A469047049805F12B
:101B20000105401C04900198401E019004D12E2014
:101B30005A46179990476D1CBAF10001AAF1010AA3
:101B4000DDDC05E017F8010B5A46179990476D1C2C
:101B5000B8F10001A8F10108F4DC5B462146179AB0
:101B60000598ABE62D0000002B00000020000000CF
:101B70002DE9F041044600251E461746880404D48A
:101B800005E039462020B0476D1C641EF9D5284673
:101B9000BDE8F0812DE9F041044600251E4690463F
:101BA000C80301D5302700E02027880404D505E0CC
:101BB00041463846B0476D1C641EF9D52846BDE83D
:101BC000F0810A68531C0B60107070472DE9F04FCC
:101BD000364A0346106840F00200106033494FF067
:101BE00004080831C1F8008010240C6020250D6025
:101BF00040260E6080270F6000F0DAF8106840F091
:101C0000040010602A4AD80601D5146002E04FF49F
:101C10008010106098064FF4001901D5156001E09E
:101C2000C2F8009058064FF4800A01D5166001E012
:101C3000C2F800A018064FF4000B01D5176001E0B0
:101C4000C2F800B000F0B4F8C1F800800C600D607C
:101C50000E600F6000F0ACF81448D0F800C04CF0F3
:101C6000040CC0F800C0D80701D0146002E04FF4A3
:101C700080101060980701D5156001E0C2F800904F
:101C8000580701D5166001E0C2F800A0180701D579
:101C9000176001E0C2F800B000F08AF8C1F80080D7
:101CA0000C600D600E600F60BDE8F08F0C08014005
:101CB0001008014010B5012000F006F8BDE8104002
:101CC0000220FEF7A5BD00002DE9F04F374903467D
:101CD000022008604FF00409C1F8009010240C6045
:101CE00020250D6040260E6080270F6000F060F810
:101CF000DFF8B880A8F10808D8F8002042F0040204
:101D0000C8F80020D8064FF4801A08F1040201D563
:101D1000146001E0C2F800A098064FF4001B01D542
:101D2000156001E0C2F800B0580601D5166002E067
:101D30004FF480001060180601D5176002E04FF4E0
:101D40000000106000F034F8C1F800900C600D60E5
:101D50000E600F6000F02CF8D8F800C04CF0040CB6
:101D6000C8F800C0D80701D0146001E0C2F800A094
:101D7000980701D5156001E0C2F800B0580701D5F9
:101D8000166002E04FF480001060180701D517605C
:101D900002E04FF40000106000F00AF8C1F8009073
:101DA0000C600D600E600F60BDE8F08F14080140FC
:101DB0004FF47A70401EFDD17047012805D00228EB
:101DC00005D1BF31C8B2FFF77FBF7F31FAE7704757
:101DD00070B5064614460D46FA20FEF719FD02209E
:101DE000FFF772FF3220FEF713FD2E43264346F025
:101DF0002000FFF769FF3220FEF70AFD0620FFF7FB
:101E000063FF3220FEF704FD0E20FFF75DFF322056
:101E1000FEF7FEFC0C20FFF757FF3220FEF7F8FC20
:101E20000120FFF751FFBDE870406420FEF7F0BCD1
:101E300010B5044606E000BFFFF7BAFF14F8010B27
:101E4000FFF7C4FE20780028F6D1BDE81040FFF768
:101E5000AFBF10B51446FFF7B0FF2046BDE81040F5
:101E6000FFF7E6BF9CB0334C0026611561F30F000D
:101E7000491061F31F40A2468146B3464025FEF754
:101E8000E1FDFFF7C9F9FFF751F9002108220846E3
:101E9000FFF79EFF214633464A4608460095FFF766
:101EA000DDF8FFF707FF244C0A2742F210784FF4C1
:101EB0004E7651465B464A4608460095FFF7F9F8CC
:101EC000CDE9005751465B464A460846FFF7ACF855
:101ED0002060216891FBF8F020602068B04200DCAF
:101EE00026602068A0F54E7020602068FEF7ACF9EF
:101EF0001249FEF739F91249FEF768F960604FF4AC
:101F0000FA70FEF785FC0F496068FEF72DF9FEF7C1
:101F1000A4F902460B460CA102A8FFF7C5F901215E
:101F200002AA0846FFF795FF0AA201210220FFF747
:101F300090FFBEE7000C0140000000200000A04020
:101F40000000604200007A44252E3366204752414B
:101F50004D0000002D2D2D4552454E20414B594F2F
:101F60004C2D2D2D0000000000000000000000009E
:101F70000102030406070809981F0008000000205A
:101F800018000000F0120008B01F00081800002020
:101F90000004000000130008000000000000000022
:101FA0000100000010000000000000000024F40008
:04000005080000ED02
:00000001FF
